:100000000C9434000C9451000C9451000C94510049
:100010000C9451000C9451000C9451000C9451001C
:100020000C9451000C9451000C9451000C9451000C
:100030000C9451000C9451000C9451000C945100FC
:100040000C9451000C9451000C9451000C945100EC
:100050000C9451000C9483010C9451000C945100A9
:100060000C9451000C94510011241FBECFEFD8E026
:10007000DEBFCDBF11E0A0E0B1E0E4E7FBE002C0ED
:1000800005900D92AA3BB107D9F721E0AAEBB1E0A8
:1000900001C01D92A83FB207E1F70E9404010C9431
:1000A000B8050C940000E0ECF0E0908195FFFDCFE6
:1000B0008093C60080E090E0089587B187B918B8B2
:1000C000EEE7F0E08081806180830895ECE7F0E066
:1000D000808184648083EAE7F0E080818F6A808396
:1000E000EBE7F0E08081836080830895ECE7F0E047
:1000F0009081907F8F70892B80830895EAE7F0E0EC
:1001000080818064808308951092C50087E0809389
:10011000C400E2ECF0E0808185608083E1ECF0E0F7
:10012000808188618083089516BC83E687BD84B58D
:10013000826484BD0895CF93DF9300D0CDB7DEB73E
:100140009C0119828981F901E80FF11D80818823C2
:1001500051F099819F5F99838981F901E80FF11D21
:1001600080818111F6CF1A829A8189819817A8F42B
:10017000E0ECF0E046EC50E0908195FFFDCF8A8105
:10018000D901A80FB11D8C91DA018C939A819F5FE0
:100190009A839A818981981778F30F900F90DF9155
:1001A000CF91089585B5826085BD0895CF93DF9383
:1001B0001F92CDB7DEB71982E0ECF0E026EC30E01C
:1001C000808185FFFDCF9981D9018C91A92FB0E065
:1001D00054968C9389818F5F8983D9018C91811189
:1001E000EFCF84E190E00F90DF91CF9108950E94CE
:1001F000D600FC018081811106C00E94D600FC015E
:1002000080818823D1F308950E9484000E945D00BC
:1002100080E091E09093F5018093F4010E946600E4
:1002200085E00E9476000E9494000E94D2000E9405
:100230007E0078948EE091E00E949B000E94F7007F
:1002400083E191E00E949B0081E291E00E949B008B
:100250008EE391E00E949B000CE411E00F2EF2E38C
:10026000FF2EF02DC0ECD1E02FEF83ED90E3215075
:1002700080409040E1F700C000006091BA017091A9
:10028000BB018091BC019091BD0123E23BED49EFA0
:100290005EE30E9402026093BA017093BB018093F7
:1002A000BC019093BD018091BA019091BB01A091D6
:1002B000BC01B091BD01BF93AF939F938F931F93E8
:1002C0000F931F92FF92DF93CF930E94C00287E5A6
:1002D00091E00E949B0080E891E00E949B0080E9F1
:1002E00091E00E949B00CE010E949B0082E591E07C
:1002F0000E949B008DB79EB70A960FB6F8949EBFDA
:100300000FBE8DBFB1CF1F920F920FB60F92112467
:100310002F933F934F935F936F937F938F939F930D
:10032000AF93BF93EF93FF9382E085BB84E089B9DD
:10033000809178008093BF01809179008093BE0105
:100340008091BE016091BF0170E0782B072E000CF8
:10035000880B990B0E94C7016093BA017093BB018F
:100360008093BC019093BD01FF91EF91BF91AF913C
:100370009F918F917F916F915F914F913F912F91BD
:100380000F900FBE0F901F901895E89409C097FB2F
:100390003EF490958095709561957F4F8F4F9F4F5C
:1003A0009923A9F0F92F96E9BB279395F6958795A0
:1003B00077956795B795F111F8CFFAF4BB0F11F463
:1003C00060FF1BC06F5F7F4F8F4F9F4F16C088230A
:1003D00011F096E911C0772321F09EE8872F762F40
:1003E00005C0662371F096E8862F70E060E02AF081
:1003F0009A95660F771F881FDAF7880F969587956D
:1004000097F908950E9415020C9486020E947802C2
:1004100038F00E947F0220F0952311F00C946F02B7
:100420000C94750211240C94BA020E94970270F386
:10043000959FC1F3950F50E0551F629FF001729F89
:10044000BB27F00DB11D639FAA27F00DB11DAA1F98
:10045000649F6627B00DA11D661F829F2227B00DE5
:10046000A11D621F739FB00DA11D621F839FA00D70
:10047000611D221F749F3327A00D611D231F849FC0
:10048000600D211D822F762F6A2F11249F57504017
:100490009AF0F1F088234AF0EE0FFF1FBB1F661F92
:1004A000771F881F91505040A9F79E3F510580F05B
:1004B0000C946F020C94BA025F3FE4F3983ED4F3BD
:1004C000869577956795B795F795E7959F5FC1F7FF
:1004D000FE2B880F911D9695879597F9089597F9AA
:1004E0009F6780E870E060E008959FEF80EC0895DA
:1004F00000240A9416161706180609060895002403
:100500000A9412161306140605060895092E03947C
:10051000000C11F4882352F0BB0F40F4BF2B11F4F0
:1005200060FF04C06F5F7F4F8F4F9F4F089557FD4F
:100530009058440F551F59F05F3F71F04795880F51
:1005400097FB991F61F09F3F79F0879508951216E8
:1005500013061406551FF2CF4695F1DF08C0161694
:1005600017061806991FF1CF869571056105089445
:100570000895E894BB2766277727CB0197F908955C
:10058000AEE0B0E0E6ECF2E00C948F050D891E8938
:100590008F89988D26E02C831A83098397FF02C0E8
:1005A00080E090E801979E838D83AE01455E5F4FAA
:1005B000698D7A8DCE0101960E94F0024D815E8197
:1005C00057FD0AC02F813885421753070CF49A0152
:1005D000F801E20FF31F10822E96E4E00C94AB05B5
:1005E000ABE0B0E0E6EFF2E00C9481056C017B013A
:1005F0008A01FC0117821682838181FFCCC1CE0162
:1006000001963C01F6019381F70193FD859193FFDB
:1006100081917F01882309F4BAC1853239F493FDB1
:10062000859193FF81917F01853229F4B60190E095
:100630000E94E704E7CF912C212C312CFFE1F31528
:10064000D8F08B3279F038F4803279F08332A1F42B
:10065000232D20611DC08D3261F0803369F4232D7C
:10066000216016C0832D8260382EE32DE4603E2E7B
:100670002AC0F32DF8601DC037FC2DC020ED280FD7
:100680002A3040F08E32B9F436FC81C1232D20642B
:10069000322E19C036FE06C08AE0989E200D112425
:1006A000922E11C0EAE02E9E200D1124222EF32D51
:1006B000F0623F2E08C08C3621F4832D8068382EDE
:1006C00002C0883641F4F70193FD859193FF819133
:1006D0007F018111B3CF982F9F7D9554933028F4DB
:1006E0000C5F1F4F9FE399830DC0833631F0833732
:1006F00071F0833509F059C021C0F80180818983E8
:100700000E5F1F4F88248394912C530113C028013E
:10071000F2E04F0E511CF801A080B18036FE03C0FC
:10072000692D70E002C06FEF7FEFC5010E94DC040D
:100730004C018201F32DFF773F2E16C0280122E0E5
:10074000420E511CF801A080B18036FE03C0692D15
:1007500070E002C06FEF7FEFC5010E94D1044C0131
:10076000F32DF0683F2E820133FC1BC0822D90E0F8
:1007700088169906B0F4B60180E290E00E94E70482
:100780002A94F4CFF50137FC859137FE81915F0102
:10079000B60190E00E94E70421102A9421E0821A19
:1007A00091088114910471F7E8C0843611F08936FC
:1007B00041F5F80137FE07C0608171818281938124
:1007C0000C5F1F4F08C060817181072E000C880BE1
:1007D000990B0E5F1F4FF32DFF763F2E97FF09C039
:1007E00090958095709561957F4F8F4F9F4FF068E2
:1007F0003F2E2AE030E0A3010E942305882E8618B0
:1008000045C0853731F4232D2F7EB22E2AE030E00B
:1008100025C0932D997FB92E8F36C1F018F48835F5
:1008200079F0B5C0803719F0883721F0B0C0E92FD2
:10083000E061BE2EB4FE0DC0FB2DF460BF2E09C0DA
:1008400034FE0AC0292F2660B22E06C028E030E010
:1008500005C020E130E002C020E132E0F801B7FE3F
:1008600007C060817181828193810C5F1F4F06C038
:100870006081718180E090E00E5F1F4FA3010E94B4
:100880002305882E8618FB2DFF773F2E36FE0DC0E0
:10089000232D2E7FA22E891458F434FE0BC032FC77
:1008A00009C0832D8E7EA82E05C0B82CA32C03C0B2
:1008B000B82C01C0B92CA4FE0FC0FE01E80DF11D3B
:1008C0008081803321F49A2D997EA92E09C0A2FE41
:1008D00006C0B394B39404C08A2D867809F0B3940B
:1008E000A3FC11C0A0FE06C0B21488F4280C922C00
:1008F0009B180EC0B21460F4B60180E290E00E9432
:10090000E704B394F7CFB21418F42B1802C0982C54
:10091000212CA4FE10C0B60180E390E00E94E70401
:10092000A2FE17C0A1FC03C088E790E002C088E5E2
:1009300090E0B6010CC08A2D867859F0A1FE02C065
:100940008BE201C080E2A7FC8DE2B60190E00E943C
:10095000E704891438F4B60180E390E00E94E704CC
:100960009A94F7CF8A94F301E80DF11D8081B601C6
:1009700090E00E94E7048110F5CF222009F442CED6
:10098000B60180E290E00E94E7042A94F6CFF601D7
:100990008681978102C08FEF9FEF2B96E2E10C9446
:1009A0009D05FC010590615070400110D8F78095BD
:1009B00090958E0F9F1F0895FC016150704001902B
:1009C0000110D8F7809590958E0F9F1F08950F9373
:1009D0001F93CF93DF93FB01238121FD03C08FEF92
:1009E0009FEF2CC022FF16C046815781248135819C
:1009F0004217530744F4A081B1819D012F5F3F4FFF
:100A0000318320838C93268137812F5F3F4F37833B
:100A1000268314C08B01EC01FB010084F185E02DDD
:100A20000995892BE1F6D80116968D919C9117971F
:100A3000019617969C938E931697CE01DF91CF91D6
:100A40001F910F910895FA01AA27283051F1203102
:100A500081F1E8946F936E7F6E5F7F4F8F4F9F4F52
:100A6000AF4FB1E03ED0B4E03CD0670F781F891F94
:100A70009A1FA11D680F791F8A1F911DA11D6A0F62
:100A8000711D811D911DA11D20D009F468943F9115
:100A90002AE0269F11243019305D3193DEF6CF0114
:100AA0000895462F4770405D4193B3E00FD0C9F7DA
:100AB000F6CF462F4F70405D4A3318F0495D31FD47
:100AC0004052419302D0A9F7EACFB4E0A69597959A
:100AD000879577956795BA95C9F700976105710570
:100AE00008959B01AC010A2E0694579547953795BA
:100AF0002795BA95C9F7620F731F841F951FA01D14
:100B000008952F923F924F925F926F927F928F92B1
:100B10009F92AF92BF92CF92DF92EF92FF920F938C
:100B20001F93CF93DF93CDB7DEB7CA1BDB0B0FB696
:100B3000F894DEBF0FBECDBF09942A883988488853
:100B40005F846E847D848C849B84AA84B984C884E9
:100B5000DF80EE80FD800C811B81AA81B981CE0FE0
:100B6000D11D0FB6F894DEBF0FBECDBFED010895C5
:040B7000F894FFCF27
:100B74000000000200000000530000000000415487
:100B84000D0A0041542B43574D4F44453D330D0A44
:100B94000041542B43574A41503D2257494649226C
:100BA4002C2250415353574F5244220D0A004154B2
:100BB4002B4349504D55583D300D0A0025346620CD
:100BC40043200D0A0D0A0041542B4349505354410C
:100BD40052543D22544350222C223138342E313089
:100BE400362E3135332E313439222C38300D0A006B
:100BF40041542B43495053454E443D34350D0A006E
:100C0400474554202F7570646174653F6B65793D69
:100C140050424F46364E35464C4357384757445753
:0A0C2400266669656C64313D00002E
:00000001FF
