:100000000C9434000C9451000C9451000C94510049
:100010000C9460010C9451000C9451000C9451000C
:100020000C9451000C9451000C9451000C9451000C
:100030000C9451000C9451000C9451000C945100FC
:100040000C9451000C9451000C9451000C945100EC
:100050000C9451000C9417010C9451000C94510015
:100060000C9451000C94510011241FBECFEFD8E026
:10007000DEBFCDBF11E0A0E0B1E0EEE5F6E002C0EA
:1000800005900D92AE30B107D9F721E0AEE0B1E0B6
:1000900001C01D92AA31B207E1F70E94BB000C9487
:1000A0002D030C940000E0ECF0E0908195FFFDCF73
:1000B0008093C60080E090E0089587B187B988B149
:1000C00088B9EEE7F0E0808181608083419AE8E6BC
:1000D000F0E0808182608083ECE6F0E080818260E5
:1000E000808384B1866084B92A980895ECE7F0E0B3
:1000F000808180648083EAE7F0E080818F6A80837A
:10010000EBE7F0E08081836080830895ECE7F0E026
:100110009081907F8F70892B80830895EAE7F0E0CB
:1001200080818064808308951092C50087E6809363
:10013000C400E2ECF0E0808185608083E1ECF0E0D7
:10014000808188618083089516BC83E687BD84B56D
:10015000826484BD0895E0E8F0E08081816F80834F
:10016000089585B5826085BD0895E1E8F0E080815D
:100170008560808308950E9494000E945D0080E065
:1001800091E090931701809316010E94760080E021
:100190000E9486000E94A4000E94AB000E94B10051
:1001A0000E94B5000E948E007894109289000EEF94
:1001B00011E0C8E8D0E060910E0170910F018091CC
:1001C00010019091110120E030EC4FE754E40E94BF
:1001D0008A0120E030E048EC52E40E94C0020E9414
:1001E000FC01709313016093120120911201309170
:1001F0001301209FC001219F900D309F900D11246D
:100200009093130180931201809112019091130138
:100210000A9699838883CFCFE1E8F0E0908184E06B
:1002200089278083908181E08927808308951F92A8
:100230000F920FB60F9211242F933F934F935F931A
:100240006F937F938F939F93AF93BF93EF93FF939E
:10025000CF93DF9300D0CDB7DEB719821A8282E048
:1002600085BB84E089B98091780089838091790089
:100270008A838A81698170E0782B072E000C880BB5
:10028000990B0E94340260930E0170930F018093CA
:100290001001909311010F900F90DF91CF91FF917A
:1002A000EF91BF91AF919F918F917F916F915F91EE
:1002B0004F913F912F910F900FBE0F901F90189567
:1002C0001F920F920FB60F9211242F933F934F93CB
:1002D0005F936F937F938F939F93AF93BF93EF93AE
:1002E000FF93319906C010928900109288000E94F5
:1002F0000C01FF91EF91BF91AF919F918F917F91F1
:100300006F915F914F913F912F910F900FBE0F9082
:100310001F9018950E949E010C9486020E947F02F5
:1003200058F00E94780240F029F45F3F29F00C94C5
:100330006F0251110C94BA020C9475020E9497023C
:1003400068F39923B1F3552391F3951B550BBB2704
:10035000AA2762177307840738F09F5F5F4F220F49
:10036000331F441FAA1FA9F335D00E2E3AF0E0E840
:1003700032D091505040E695001CCAF72BD0FE2F8A
:1003800029D0660F771F881FBB1F2617370748071E
:10039000AB07B0E809F0BB0B802DBF01FF279358D6
:1003A0005F4F3AF09E3F510578F00C946F020C9429
:1003B000BA025F3FE4F3983ED4F38695779567954C
:1003C000B795F7959F5FC9F7880F911D969587950B
:1003D00097F90895E1E0660F771F881FBB1F62172A
:1003E00073078407BA0720F0621B730B840BBA0BE8
:1003F000EE1F88F7E09508950E9403026894B111FA
:100400000C94BA0208950E949F0288F09F5798F0BA
:10041000B92F9927B751B0F0E1F0660F771F881F09
:10042000991F1AF0BA95C9F714C0B13091F00E9423
:10043000B902B1E008950C94B902672F782F88278C
:10044000B85F39F0B93FCCF3869577956795B3954A
:10045000D9F73EF490958095709561957F4F8F4FB9
:100460009F4F0895E89409C097FB3EF490958095BE
:10047000709561957F4F8F4F9F4F9923A9F0F92F6A
:1004800096E9BB279395F695879577956795B795E8
:10049000F111F8CFFAF4BB0F11F460FF1BC06F5FCE
:1004A0007F4F8F4F9F4F16C0882311F096E911C0E0
:1004B000772321F09EE8872F762F05C0662371F001
:1004C00096E8862F70E060E02AF09A95660F771F15
:1004D000881FDAF7880F9695879597F9089597F909
:1004E0009F6780E870E060E008959FEF80EC0895DA
:1004F00000240A9416161706180609060895002403
:100500000A9412161306140605060895092E03947C
:10051000000C11F4882352F0BB0F40F4BF2B11F4F0
:1005200060FF04C06F5F7F4F8F4F9F4F089557FD4F
:100530009058440F551F59F05F3F71F04795880F51
:1005400097FB991F61F09F3F79F0879508951216E8
:1005500013061406551FF2CF4695F1DF08C0161694
:1005600017061806991FF1CF869571056105089445
:100570000895E894BB2766277727CB0197F908955C
:100580000E94D3020C9486020E94780238F00E94E6
:100590007F0220F0952311F00C946F020C947502E9
:1005A00011240C94BA020E94970270F3959FC1F334
:1005B000950F50E0551F629FF001729FBB27F00D11
:1005C000B11D639FAA27F00DB11DAA1F649F662766
:1005D000B00DA11D661F829F2227B00DA11D621FB5
:1005E000739FB00DA11D621F839FA00D611D221F6F
:1005F000749F3327A00D611D231F849F600D211D53
:10060000822F762F6A2F11249F5750409AF0F1F0D5
:1006100088234AF0EE0FFF1FBB1F661F771F881F3E
:1006200091505040A9F79E3F510580F00C946F0205
:100630000C94BA025F3FE4F3983ED4F38695779525
:100640006795B795F795E7959F5FC1F7FE2B880FE4
:0E065000911D9695879597F90895F894FFCF20
:0E065E00000000020000000053000000000039
:00000001FF
