:100000000C9434000C943E000C943E000C943E0082
:100010000C943E000C943E000C943E000C943E0068
:100020000C943E000C943E000C943E000C943E0058
:100030000C943E000C943E000C943E000C943E0048
:100040000C943E000C943E000C943E000C943E0038
:100050000C943E000C943E000C943E000C943E0028
:100060000C943E000C943E0011241FBECFEFD8E04C
:10007000DEBFCDBF0E9440000C9460000C940000D5
:10008000229A15B814BC16BC85B5856085BD34E0D0
:1000900021E085B1832785B98FE090E0A89BFECF52
:1000A00016BC25BB0197D1F785B1832785B987E1B8
:1000B00090E0A89BFECF16BC25BB0197D1F7E9CFF6
:0400C000F894FFCFE2
:00000001FF
