:100000000C9434000C9446000C9446000C9446006A
:100010000C9446000C9446000C9446000C94460048
:100020000C9446000C9446000C9446000C94460038
:100030000C9446000C9446000C9471000C944600FD
:100040000C9446000C9446000C9446000C94460018
:100050000C9446000C9446000C9446000C94460008
:100060000C9446000C94460011241FBECFEFD8E03C
:10007000DEBFCDBF21E0A0E0B1E001C01D92A23003
:10008000B207E1F70E9448000C9489000C9400002C
:1000900084E084B915B817B888E088B910920101D6
:1000A0001092000154E04FEF22E035E0EEE6F0E080
:1000B00033990AC055B9109201011092000147BD51
:1000C00024BD35BD20837894809100019091010179
:1000D0008135910569F715B8109201011092000160
:1000E000E7CF1F920F920FB60F9211248F939F9319
:1000F00080910001909101010196909301018093FC
:100100000001A99A9F918F910F900FBE0F901F90A1
:060110001895F894FFCFE2
:00000001FF
