:100000000C9434000C9446000C9446000C9446006A
:100010000C9446000C9446000C9446000C94460048
:100020000C9446000C9446000C9446000C94460038
:100030000C9446000C9446000C9446000C94460028
:100040000C946B000C9446000C9446000C944600F3
:100050000C9446000C9446000C9446000C94460008
:100060000C9446000C94460011241FBECFEFD8E03C
:10007000DEBFCDBF21E0A0E0B1E001C01D92A23003
:10008000B207E1F70E9448000C9483000C94000032
:10009000109201011092000184E084B985B916BC68
:1000A00081E080936E0014BC85E085BD789424E0E7
:1000B00080910001909101010F9709F415B880918A
:1000C000000190910101869799F725B910920101DD
:1000D00010920001EDCF1F920F920FB60F921124D4
:1000E0008F939F93809100019091010101969093CD
:1000F00001018093000116BC9F918F910F900FBE5C
:0A0100000F901F901895F894FFCFA0
:00000001FF
