:100000000C9434000C945A000C9451000C94510040
:100010000C9451000C9451000C9451000C9451001C
:100020000C9451000C9451000C9451000C9451000C
:100030000C9451000C9451000C9451000C945100FC
:100040000C9451000C9451000C9451000C945100EC
:100050000C9451000C9451000C9451000C945100DC
:100060000C9451000C94510011241FBECFEFD8E026
:10007000DEBFCDBF12E0A0E0B1E0E8E8F1E102C0F0
:1000800005900D92A238B107D9F722E0A2E8B2E0BC
:1000900001C01D92AB3AB207E1F70E940B010C942C
:1000A000C2080C94000085E480937C0085E880936E
:1000B0007A0008951F920F920FB60F9211248F931A
:1000C00081E0809383028F910F900FBE0F901F905D
:1000D0001895CF93DF931F92CDB7DEB786E291E0FC
:1000E0000E94BA0584E591E00E94BA0541E050E023
:1000F000BE016F5F7F4F80E00E94D10189811F9216
:100100008F9380E891E09F938F930E94A40541E034
:1001100050E0BE016F5F7F4F81E00E94D101898175
:100120001F928F938EE891E09F938F930E94A40576
:1001300041E050E0BE016F5F7F4F82E00E94D1013D
:1001400089811F928F938CE991E09F938F930E94F6
:10015000A40541E050E0BE016F5F7F4F84E00E9444
:10016000D10189811F928F938DEA91E09F938F93A4
:100170000E94A40541E050E0BE016F5F7F4F85E023
:100180000E94D10189811F928F938FEB91E09F9301
:100190008F930E94A40541E050E0BE016F5F7F4F46
:1001A00086E00E94D10189811F928F938DEC91E0AE
:1001B0009F938F930E94A40541E050E0BE016F5FC2
:1001C0007F4F87E00E94D10189811F928F938DED2F
:1001D00091E09F938F930E94A40541E050E0BE01FF
:1001E0006F5F7F4F8DE10E94D10189811F928F93B4
:1001F0008BEE91E09F938F930E94A4050FB6F89425
:10020000DEBF0FBECDBF8AEF91E00E94BA050F900E
:10021000DF91CF910895CF93DF93CDB7DEB7AA9743
:100220000FB6F894DEBF0FBECDBF8DE0E7E2F2E07F
:10023000DE01119601900D928A95E1F70E94290442
:100240000E9453000E94D4010E9469000E94F9029A
:1002500085E0E4E3F2E0DE01119601900D928A95CB
:10026000E1F7CE0101960E9404030AE710E00F2E89
:10027000F8E7CF2ED12CF02D0F2EF9E7EF2EF12C31
:10028000F02D0F2EF9E3AF2EF2E0BF2EF02D9924C2
:1002900093942FEF82E597E0215080409040E1F762
:1002A00000C00000F801808180648083F8018081B3
:1002B00084FFFCCF808180618083F6016081F7013B
:1002C000808170E0782B072E000C880B990B0E9420
:1002D000740423E23BED49EF5EE30E94D8040E94E0
:1002E0003C04CB0180964AE050E0BE016F5D7F4F39
:1002F0000E94740580918302882359F21092830230
:100300000E94C1039F938F93BF92AF920E94A40556
:10031000FFEF29E688E1F15020408040E1F700C07E
:100320000000CE0181960E940403992D0F900F903A
:100330000F900F90811101C090E090938202809104
:100340008202882309F4A5CF8FE492E00E94BA05C7
:10035000A0CFDF92EF92FF920F931F93CF93DF9383
:100360007B018A012A980E940804D82E01151105E4
:1003700051F0E7010E0D1F1D88810E94080489932A
:10038000C017D107C9F72A9A8D2DDF91CF911F9100
:100390000F91FF90EF90DF90089580620E94A90175
:1003A00008950E94A90108950F931F93CF93DF939F
:1003B0001F92CDB7DEB7F894E9E6F0E08081826065
:1003C0008083E89A7894219A229A2A9A29980E94FE
:1003D000F9032FEF81EE94E0215080409040E1F747
:1003E00000C000000FE30093A40241E050E064EA83
:1003F00072E080E00E94CD011092A40241E050E042
:1004000064EA72E081E00E94CD0180EF8093A40253
:1004100041E050E064EA72E084E00E94CD01109275
:10042000A40241E050E064EA72E082E00E94CD0163
:1004300084E78093A40241E050E064EA72E085E042
:100440000E94CD018EE08093A40241E050E064EA76
:1004500072E086E00E94CD0110E71093A40241E013
:1004600050E064EA72E087E00E94CD010093A402AC
:1004700041E050E064EA72E08CE10E94CD0184E04A
:100480008093A40241E050E064EA72E08DE10E94B2
:10049000CD01198340E050E060E070E082EE0E9400
:1004A000CD0140E050E060E070E081EE0E94CD01BF
:1004B00045E050E065E071E08AE00E94CD0145E052
:1004C00050E060E071E080E10E94CD0141E050E049
:1004D000BE016F5F7F4F82E00E94CD018981816004
:1004E000898341E050E0BE016F5F7F4F82E00E9450
:1004F000CD010F90DF91CF911F910F9108951F9320
:10050000CF93DF931F92CDB7DEB7182F41E050E0B5
:10051000BE016F5F7F4F80E00E94D101133071F107
:1005200028F4113059F01230E9F05EC0153009F4AA
:1005300047C0D0F1163009F445C056C0898181FD0D
:1005400053C082608093A40241E050E064EA72E00C
:1005500080E00E94CD018FE39FE10197F1F700C099
:10056000000042C089818D7F8093A40241E050E069
:1005700064EA72E080E00E94CD0136C0898181602A
:100580008093A40241E050E064EA72E080E00E94BF
:10059000CD0180E78093A40241E050E064EA72E07C
:1005A00087E00E94CD0120C089818E7F8093A402C4
:1005B00041E050E064EA72E080E00E94CD0114C0A6
:1005C000299812C089818E7F8093A40241E050E077
:1005D00064EA72E080E00E94CD01299A87E592E00A
:1005E0000197F1F700C000000F90DF91CF911F91AC
:1005F000089583E00E947F02299A87E592E001979F
:10060000F1F700C000000895CF92DF92EF92FF92C1
:100610000F931F93CF93DF93CDB7DEB7A0970FB69D
:10062000F894DEBF0FBECDBF6C016894FF24F5F8CF
:10063000CE010196FC012F2D11922A95E9F7B60102
:100640000E946D05F60101900020E9F731978F01B6
:100650000C191D0984E00E947F0240E050E060E038
:1006600070E082EE0E94CD0140E050E060E070E07A
:1006700081EE0E94CD01F092A40241E050E064EAD4
:1006800072E087E00E94CD0141E050E064EA72E050
:1006900080E00E94D1018091A40280648093A40232
:1006A00041E050E064EA72E080E00E94CD012A98C7
:1006B00080EB0E940304EFEFE00F002381F086013E
:1006C000EE2EF12CF70131967601EE0EFF1EF801A9
:1006D00081918F010E9403040E151F05C1F780E070
:1006E0000E9403042A9A299AF0E5FA95F1F72998CD
:1006F00041E050E064EA72E087E00E94D10180911D
:10070000A40285FD0BC041E050E064EA72E087E09E
:100710000E94D1018091A40285FFF5CFCE01019600
:100720009F938F9389E692E09F938F930E94A405F5
:1007300041E050E064EA72E080E00E94D1018091E3
:10074000A4028F7B8093A40241E050E064EA72E04F
:1007500080E00E94CD010E94F9020F900F900F904F
:100760000F9081E0A0960FB6F894DEBF0FBECDBF0C
:10077000DF91CF911F910F91FF90EF90DF90CF907D
:10078000089580E2E4E8F2E0DF011D928A95E9F73E
:1007900041E050E064EA72E080E60E94D1014091BD
:1007A000A402442341F050E04F5F5F4F64E872E0E1
:1007B00081E60E94A90180918402882369F080E487
:1007C0008093A40241E050E064EA72E087E00E9476
:1007D000CD0184E892E0089580E48093A40241E092
:1007E00050E064EA72E087E00E94CD018BE792E07E
:1007F0000895249884B1886284B980E58CBD8DB554
:1008000081608DBD08958EBD0DB407FEFDCF0895A6
:100810008EBD0DB407FEFDCF8EB50895CF93C82FC2
:100820008A3019F48DE00E940E04E0ECF0E0808143
:1008300085FFFDCFC093C60080E090E0CF91089582
:10084000E0ECF0E080818823ECF78091C60090E036
:1008500008951092C50087E68093C40088E18093D4
:10086000C100E5EAF2E088E191E0938382838AE0C7
:1008700091E09183808308950E9443046894B111AC
:100880000C94D20408950E94B70488F09F5798F002
:10089000B92F9927B751B0F0E1F0660F771F881F85
:1008A000991F1AF0BA95C9F714C0B13091F00E949F
:1008B000D104B1E008950C94D104672F782F8827D4
:1008C000B85F39F0B93FCCF3869577956795B395C6
:1008D000D9F73EF490958095709561957F4F8F4F35
:1008E0009F4F0895E89409C097FB3EF4909580953A
:1008F000709561957F4F8F4F9F4F9923A9F0F92FE6
:1009000096E9BB279395F695879577956795B79563
:10091000F111F8CFFAF4BB0F11F460FF1BC06F5F49
:100920007F4F8F4F9F4F16C0882311F096E911C05B
:10093000772321F09EE8872F762F05C0662371F07C
:1009400096E8862F70E060E02AF09A95660F771F90
:10095000881FDAF7880F9695879597F9089557FDC0
:100960009058440F551F59F05F3F71F04795880F1D
:1009700097FB991F61F09F3F79F0879508951216B4
:1009800013061406551FF2CF4695F1DF08C0161660
:1009900017061806991FF1CF869571056105089411
:1009A0000895E894BB2766277727CB0197F9089528
:1009B0000E94EB040C945C050E944E0538F00E94E6
:1009C000550520F0952311F00C9445050C944B052A
:1009D00011240C94D2040E94AF0470F3959FC1F3CC
:1009E000950F50E0551F629FF001729FBB27F00DDD
:1009F000B11D639FAA27F00DB11DAA1F649F662732
:100A0000B00DA11D661F829F2227B00DA11D621F80
:100A1000739FB00DA11D621F839FA00D611D221F3A
:100A2000749F3327A00D611D231F849F600D211D1E
:100A3000822F762F6A2F11249F5750409AF0F1F0A1
:100A400088234AF0EE0FFF1FBB1F661F771F881F0A
:100A500091505040A9F79E3F510580F00C944505F8
:100A60000C94D2045F3FE4F3983ED4F386957795D7
:100A70006795B795F795E7959F5FC1F7FE2B880FB0
:100A8000911D9695879597F9089597F99F6780E846
:100A900070E060E008959FEF80EC089500240A94D0
:100AA0001616170618060906089500240A94121649
:100AB0001306140605060895092E0394000C11F47C
:100AC000882352F0BB0F40F4BF2B11F460FF04C029
:100AD0006F5F7F4F8F4F9F4F0895FB01DC010190A7
:100AE0000D920020E1F708954532510520F442307F
:100AF00010F00C947F05FB011082CB010895BB27F9
:100B00004A3031F4992322F4BDE2909581959F4FAC
:100B10000C948B05BB27FB015527AA27880F991F2B
:100B2000AA1FA41710F0A41B83955051B9F7A05D1C
:100B3000AA3308F0A95DA193009779F7B111B19399
:100B40001192CB010C94E107A0E0B0E0EAEAF5E0F5
:100B50000C949B08AE014B5F5F4FFA01619171915C
:100B6000AF018091A7029091A8020E94EA05E2E0FD
:100B70000C94B7080F931F93CF93DF93E091A702D4
:100B8000F091A802238121FF1BC08C01D0E0C0E0BE
:100B9000F80181918F016091A7027091A802DB0199
:100BA0001896ED91FC911997882331F00995892BBE
:100BB00079F3DFEFCFEFECCF8AE00995892B19F0BD
:100BC0008FEF9FEF02C08D2F9C2FDF91CF911F9150
:100BD0000F910895ABE0B0E0E0EFF5E00C948B08E6
:100BE0006C017B018A01FC0117821682838181FFDF
:100BF000CCC1CE0101963C01F6019381F70193FD32
:100C0000859193FF81917F01882309F4BAC18532D0
:100C100039F493FD859193FF81917F01853229F409
:100C2000B60190E00E94F107E7CF912C212C312CE6
:100C3000FFE1F315D8F08B3279F038F4803279F097
:100C40008332A1F4232D20611DC08D3261F08033E9
:100C500069F4232D216016C0832D8260382EE32D88
:100C6000E4603E2E2AC0F32DF8601DC037FC2DC075
:100C700020ED280F2A3040F08E32B9F436FC81C1C5
:100C8000232D2064322E19C036FE06C08AE0989EBD
:100C9000200D1124922E11C0EAE02E9E200D112469
:100CA000222EF32DF0623F2E08C08C3621F4832DC6
:100CB0008068382E02C0883641F4F70193FD859193
:100CC00093FF81917F018111B3CF982F9F7D955420
:100CD000933028F40C5F1F4F9FE399830DC0833638
:100CE00031F0833771F0833509F059C021C0F80124
:100CF000808189830E5F1F4F88248394912C530138
:100D000013C02801F2E04F0E511CF801A080B18001
:100D100036FE03C0692D70E002C06FEF7FEFC501A2
:100D20000E94D6074C018201F32DFF773F2E16C09B
:100D3000280122E0420E511CF801A080B18036FE4D
:100D400003C0692D70E002C06FEF7FEFC5010E9404
:100D5000CB074C01F32DF0683F2E820133FC1BC002
:100D6000822D90E088169906B0F4B60180E290E0FA
:100D70000E94F1072A94F4CFF50137FC859137FEE4
:100D800081915F01B60190E00E94F10721102A9441
:100D900021E0821A91088114910471F7E8C0843629
:100DA00011F0893641F5F80137FE07C06081718185
:100DB000828193810C5F1F4F08C060817181072E73
:100DC000000C880B990B0E5F1F4FF32DFF763F2E03
:100DD00097FF09C090958095709561957F4F8F4FD3
:100DE0009F4FF0683F2E2AE030E0A3010E942D08BB
:100DF000882E861845C0853731F4232D2F7EB22EDC
:100E00002AE030E025C0932D997FB92E8F36C1F0AE
:100E100018F4883579F0B5C0803719F0883721F09B
:100E2000B0C0E92FE061BE2EB4FE0DC0FB2DF46012
:100E3000BF2E09C034FE0AC0292F2660B22E06C07C
:100E400028E030E005C020E130E002C020E132E0DF
:100E5000F801B7FE07C060817181828193810C5FC8
:100E60001F4F06C06081718180E090E00E5F1F4FD0
:100E7000A3010E942D08882E8618FB2DFF773F2E98
:100E800036FE0DC0232D2E7FA22E891458F434FE79
:100E90000BC032FC09C0832D8E7EA82E05C0B82C55
:100EA000A32C03C0B82C01C0B92CA4FE0FC0FE01B6
:100EB000E80DF11D8081803321F49A2D997EA92EB1
:100EC00009C0A2FE06C0B394B39404C08A2D8678EC
:100ED00009F0B394A3FC11C0A0FE06C0B21488F4BC
:100EE000280C922C9B180EC0B21460F4B60180E25C
:100EF00090E00E94F107B394F7CFB21418F42B18C6
:100F000002C0982C212CA4FE10C0B60180E390E012
:100F10000E94F107A2FE17C0A1FC03C088E790E081
:100F200002C088E590E0B6010CC08A2D867859F0A1
:100F3000A1FE02C08BE201C080E2A7FC8DE2B601F7
:100F400090E00E94F107891438F4B60180E390E044
:100F50000E94F1079A94F7CF8A94F301E80DF11DEE
:100F60008081B60190E00E94F1078110F5CF222028
:100F700009F442CEB60180E290E00E94F1072A9483
:100F8000F6CFF6018681978102C08FEF9FEF2B96F7
:100F9000E2E10C94A708FC0105906150704001103B
:100FA000D8F7809590958E0F9F1F0895FC01615092
:100FB000704001900110D8F7809590958E0F9F1F7B
:100FC0000895DC01FC01672F71917723E1F73297D7
:100FD00004C07C916D9370836291AE17BF07C8F314
:100FE00008950F931F93CF93DF93FB01238121FD7E
:100FF00003C08FEF9FEF2CC022FF16C046815781A0
:10100000248135814217530744F4A081B1819D01A9
:101010002F5F3F4F318320838C93268137812F5F51
:101020003F4F3783268314C08B01EC01FB01008402
:10103000F185E02D0995892BE1F6D80116968D9161
:101040009C911797019617969C938E931697CE01B5
:10105000DF91CF911F910F910895FA01AA272830AF
:1010600051F1203181F1E8946F936E7F6E5F7F4F75
:101070008F4F9F4FAF4FB1E03ED0B4E03CD0670FF1
:10108000781F891F9A1FA11D680F791F8A1F911D44
:10109000A11D6A0F711D811D911DA11D20D009F494
:1010A00068943F912AE0269F11243019305D3193D6
:1010B000DEF6CF010895462F4770405D4193B3E0BF
:1010C0000FD0C9F7F6CF462F4F70405D4A3318F066
:1010D000495D31FD4052419302D0A9F7EACFB4E017
:1010E000A6959795879577956795BA95C9F70097CF
:1010F0006105710508959B01AC010A2E0694579570
:10110000479537952795BA95C9F7620F731F841FC6
:10111000951FA01D08952F923F924F925F926F925C
:101120007F928F929F92AF92BF92CF92DF92EF9277
:10113000FF920F931F93CF93DF93CDB7DEB7CA1BF8
:10114000DB0B0FB6F894DEBF0FBECDBF09942A8823
:10115000398848885F846E847D848C849B84AA84CB
:10116000B984C884DF80EE80FD800C811B81AA8158
:10117000B981CE0FD11D0FB6F894DEBF0FBECDBF23
:08118000ED010895F894FFCF82
:10118800E7E7E7E7E7E7E7E7E7E700000001000050
:101198000000000020040000000000020000000021
:1011A8000E0400000000537461727475702073752A
:1011B800636365737366756C0A0A206E524632342F
:1011C8004C30312B20636F6E6669677572656420D9
:1011D80061733A002D2D2D2D2D2D2D2D2D2D2D2DDD
:1011E8002D2D2D2D2D2D2D2D2D2D2D2D2D2D2D2D27
:1011F8002D2D2D2D2D2D2D2D2D2D2D2D2D2D2D0044
:10120800434F4E4649470909307825780A00454E2C
:101218005F4141090909307825780A00454E5F5237
:1012280058414444520909307825780A00534554F6
:1012380055505F524554520909307825780A0052B2
:10124800465F4348090909307825780A0052465F05
:1012580053455455500909307825780A00535441AC
:101268005455530909307825780A004645415455A4
:1012780052450909307825780A002D2D2D2D2D2D60
:101288002D2D2D2D2D2D2D2D2D2D2D2D2D2D2D2D86
:101298002D2D2D2D2D2D2D2D2D2D2D2D2D2D2D2D76
:1012A8002D2D2D2D2D0A0048656C6C6F20576F72FF
:1012B8006C642100474F4F44005265636569766549
:1012C80064206D6573736167653A2025730A004D64
:1012D8006573736167652073656E742073756363E6
:1012E80065737366756C6C79004D657373616765BA
:1012F8002073656E743A2025730A006661696C650F
:0213080064007F
:00000001FF
