:100000000C9434000C944A000C943E000C943E0076
:100010000C943E000C943E000C943E000C943E0068
:100020000C943E000C943E000C943E000C943E0058
:100030000C943E000C943E000C943E000C943E0048
:100040000C943E000C943E000C943E000C943E0038
:100050000C943E000C943E000C943E000C943E0028
:100060000C943E000C943E0011241FBECFEFD8E04C
:10007000DEBFCDBF0E9440000C9466000C940000CF
:1000800084E084B98BB982E08093690081E08DBB04
:100090007894FFCF1F920F920FB60F9211242F93D7
:1000A0008F939F9384E085B92FE786E191E42150F7
:1000B00080409040E1F700C0000015B89F918F91FB
:1000C0002F910F900FBE0F901F901895F894FFCFAF
:00000001FF
